:020000040800F2
:1000000020090020A5060008890400088B040008C8
:100010008F04000893040008970400080000000003
:100020000000000000000000000000009B04000829
:100030009D040008000000009F040008A1040008BF
:10004000BF060008BF060008BF060008BF0600087C
:10005000BF060008BF060008BF060008BF0600086C
:10006000BF060008BF060008BF060008BF0600085C
:10007000BF060008BF060008BF060008BF0600084C
:10008000BF060008BF060008BF060008BF0600083C
:10009000BF060008BF060008BF060008BF0600082C
:1000A000BF060008BF060008BF060008BF0600081C
:1000B000A1280008BF06000837280008BF0600086E
:1000C000BF060008BF060008BF060008BF060008FC
:1000D000BF06000871230008BF060008BF0600081D
:1000E000BF060008BF060008BF060008BF060008DC
:1000F000BF060008BF060008BF060008BF060008CC
:10010000BF060008BF060008E3280008BF06000875
:10011000BF060008BF060008BF060008BF060008AB
:10012000BF060008BF060008BF060008BF0600089B
:10013000BF060008BF060008BF060008BF0600088B
:10014000BF060008BF060008BF060008BF0600087B
:10015000BF060008BF060008BF060008BF0600086B
:10016000BF060008BF060008BF060008BF0600085B
:10017000BF060008BF060008BF060008BF0600084B
:10018000BF060008BF06000800F002F800F067F89C
:100190000AA090E8000C82448344AAF10107DA45E2
:1001A00001D100F05CF8AFF2090EBAE80F0013F0CD
:1001B000010F18BFFB1A43F00103184750730000EA
:1001C000707300000A444FF0000C10F8013B13F06C
:1001D000070408BF10F8014B1D1108BF10F8015BA0
:1001E000641E05D010F8016B641E01F8016BF9D193
:1001F00013F0080F1EBF10F8014BAD1C0C1B09D1EA
:100200006D1E58BF01F801CBFAD505E014F8016B5B
:1002100001F8016B6D1EF9D59142D6D370470000ED
:100220000023002400250026103A28BF78C1FBD8FF
:10023000520728BF30C148BF0B607047662906F0DF
:100240007287002070471FB504F0AAF9040000204F
:10025000002105F071FEE0601FBD10B510BD04F077
:10026000BBFA1146FFF7EFFF00F008F804F0D9FAE7
:1002700003B4FFF7F2FF03BC02F01AF84FF4A060DA
:1002800000F030FAA82001F091FF02F093F802F09C
:10029000CBF802F0ADFB60490988481E142102F03A
:1002A000E7F85D48048804EBD47041105B4801F026
:1002B000C6FB5B490988481E142102F033F95648F1
:1002C000048804EBD4704110564801F0B8FB56493D
:1002D0000988481E142102F07EF95348048804EB73
:1002E000D4704110514801F0AAFB42F2CF013120F5
:1002F00002F0B8F94FF4963001F0E8FF01204C49C4
:10030000086000204B49C1F88C0284E000214A4873
:10031000006806F0D7FC07D102F0FEFE044606F0A6
:1003200025FD454908606CE044494548006806F0F1
:10033000C9FC24D143480078012820D10A2001F0CB
:1003400097FF00203F4908703C493D48006806F08F
:10035000B9FC1DD14FF0804037490860014636484E
:10036000006806F0AFFC13D13748334908603748BE
:10037000374908603749384802F058FB08E0002147
:100380002F48006806F09EFC02D101202D4908701C
:100390000121324800F0FEFA012805D130490860F9
:1003A0004FF08140244908602E492F48006806F02C
:1003B00009FE11D92D492C48006806F003FD0BD920
:1003C0002B492C48006806F0FDFD05D92A4929482B
:1003D000006806F0F7FC02D828481D490860244947
:1003E0001B48006806F0EEFC02D821481849086056
:1003F00022491748006806F0E5FD02D81F48144955
:1004000008601348006806F001FB044622460B46CC
:100410001BA003F003FE79E702000020000001406A
:1004200004000020000401400600002000040040F9
:1004300084024042000040422C0100200000C842DB
:10044000680100200F000020000040400000FA4337
:1004500060000020362BBF430000FA42000002403B
:10046000300100200000E143E80000200000964336
:1004700000004843E40000200000484200409C4641
:10048000252E32660D0A0000704700BFFEE700BF50
:10049000FEE700BFFEE700BFFEE77047704770470A
:1004A000704700000CB50020019000907248006871
:1004B00040F480307049086000BF6F48006800F465
:1004C000003000900198401C0190009818B90198E4
:1004D000B0F5A04FF1D16848006800F4003010B1C9
:1004E0000120009001E0002000900098012846D1F2
:1004F00061484030006840F080505F4940310860FA
:100500005E48006840F440405C4908605A48083042
:1005100000685949083108600846006840F4004006
:1005200008600846006840F4A05008605448091F5D
:100530000860081F006840F08070091F086000BF55
:100540004D48006800F000700028F9D040F20570B6
:100550004C49086048480830006820F003004649CC
:10056000083108600846006840F00200086000BFDB
:1005700041480830006800F00C000828F8D10CBD94
:1005800010B53D48006840F001003B49086000207C
:10059000394908310860384800683B490840364905
:1005A00008603A48091D0860081F006820F4802090
:1005B000091F0860002030490C310860FFF772FF06
:1005C0004FF000603249086010BD70B50020002275
:1005D000022300240221284D08352D6805F00C0067
:1005E00020B1042806D0082834D107E0294D2A4E2E
:1005F000356033E0294D284E35602FE01E4D2D1D0E
:100600002D68C5F380541C4D2D1D2D6805F03F014C
:1006100054B1224DB5FBF1F5174E361D3668C6F3C1
:10062000881605FB06F209E01A4DB5FBF1F5124EEE
:10063000361D3668C6F3881605FB06F20E4D2D1DD5
:100640002D68C5F301456D1C6B00B2FBF3F5124E2E
:10065000356003E00F4D104E356000BF00BF064D02
:1006600008352D68C5F303150D4E705D0A4D2D68D4
:10067000C540094E356070BD003802400070004032
:1006800019544007003C0240FFFFF6FE10300024E2
:1006900008ED00E00024F4001800002040787D01FF
:1006A0001C0000200948804709480047FEE7FEE794
:1006B000FEE7FEE7FEE7FEE7FEE7FEE7FEE7FEE712
:1006C00004480549054A064B7047000081050008AB
:1006D00089010008200300202009002020050020B7
:1006E0002005002032490143324A1160704770B53D
:1006F000002100230F22C4781CB32E4C246804F47C
:10070000E064C4F5E064C4F30721C1F10404E3B27A
:100710000A4144789C40E1B28478144021430C079C
:10072000210E254C05786155047804F01F0501243D
:10073000AC4005786D11AD0005F1E025C5F800412C
:1007400009E0047804F01F050124AC401B4D067835
:10075000761145F8264070BD194A0A400243154BF0
:100760001B1F1A60704739B1124A121D12680243EA
:10077000104B1B1D1A6006E00E4A121D12688243C0
:100780000C4B1B1D1A607047042808D14FF0E02164
:10079000096941F004014FF0E022116107E04FF0D8
:1007A000E021096921F004014FF0E0221161704756
:1007B0000000FA050CED00E000E400E080E100E05C
:1007C00080FFFF1F10B504469848844208D10121DC
:1007D000084600F086FB0021012000F082FB76E055
:1007E0009348844208D10121022000F07AFB0021C5
:1007F000022000F076FB6AE08E48844208D1012195
:10080000042000F06EFB0021042000F06AFB5EE093
:100810008948844208D10121082000F062FB0021B0
:10082000082000F05EFB52E08448844208D1012198
:10083000102000F056FB0021102000F052FB46E093
:100840007F48844208D10121202000F04AFB00218A
:10085000202000F046FB3AE07A48844208D101218A
:10086000402000F03EFB0021402000F03AFB2EE04B
:100870007548844208D10121802000F032FB00211C
:10088000802000F02EFB22E07048844208D1012134
:10089000801500F026FB0021A01500F022FB16E0D9
:1008A0006B48844208D10121401500F01AFB002159
:1008B000601500F016FB0AE06648844207D101216A
:1008C000001500F00EFB0021201500F00AFB10BD02
:1008D000F0B50A4600210023002400BF3DE00125B9
:1008E00005FA01F3156805EA03049C4234D1056852
:1008F0004F000326BE40B543056015794E00B54054
:100900000668354305601579012D02D01579022D51
:1009100016D185684F000326BE40B54385605579E2
:100920004E00B540866835438560456801268E4097
:10093000B5434560456896798E40B6B2354345600B
:10094000C5684F000326BE40B543C560D5794E004B
:10095000B540C6683543C560491C1029BFD3F0BDFA
:100960004FF6FF7101600021017141718171C17108
:10097000704708B54FF480320092009A0A43009203
:10098000009AC261C161009AC261C2690092C269E3
:10099000009208BD0246002013690B400BB10120F4
:1009A00000E0002070470146086980B270470246A7
:1009B000002053690B400BB1012000E0002070477C
:1009C0000146486980B27047018370474183704790
:1009D0000AB1018300E04183704741617047426979
:1009E0004A4042617047F0B5002300244D07ED0EE8
:1009F00002FA05F3CE1000F1200555F826504E07F7
:100A0000F70E0F26BE40B543CF1000F1200646F882
:100A10002750CE1000F1200555F8265045EA030472
:100A2000CE1000F1200545F82640F0BD0000024040
:100A30000004024000080240000C02400010024086
:100A40000014024000180240001C02400020024036
:100A50000024024000280240F948006840F00100EC
:100A6000F74908600020F64908310860F44800683A
:100A7000F4490840F2490860F348091D0860F3484A
:100A8000EF4984310860F0481038091D0860EC48CF
:100A9000006820F48020EA4908600020E8490C3111
:100AA0000860E7498C31086070470021E44A921CD5
:100AB000117011460870704710B5014600220023DE
:100AC00000204A11012A02D1DD4C236808E0022AE5
:100AD00003D1DB4C7034236802E0D94C74342368B2
:100AE00001F01F02012494401C400CB1012000E0E1
:100AF000002010BD38B5002000900024002500BF64
:100B00003120FFF7D9FF05460098401C009000985F
:100B1000B0F5A04F01D0002DF2D03120FFF7CCFF6F
:100B200008B1012400E00024204638BD0146002021
:100B3000C34A106820F0F80040EAC1001060704716
:100B4000C349086070470021BD4A703211701170AE
:100B5000012802D004280AD104E00121B84A7032E9
:100B6000117005E00521B64A7032117000E000BF37
:100B700000BF7047B7490860704770B5049C41EAF0
:100B800082150126C6EB530645EA0645054345EAAC
:100B90000465AB4E361D356070BDAD4908667047C3
:100BA000820142EA0172A64B84331A607047A84959
:100BB0008866704710B5830143EA016343EA027314
:100BC0009F4C8834236010BDA14908677047A04935
:100BD000C864704702460020994B0833186820F01B
:100BE000EC6042EA01031843954B083318607047E4
:100BF00002460020924B0833186820F0784042EA01
:100C0000010318438E4B08331860704701460020DB
:100C10008B4A0832106820F00300084310607047C8
:100C200087480830006800F00C007047014600203B
:100C3000834A0832106820F0F000084310607047C3
:100C4000014600207E4A0832106820F4E050084334
:100C50001060704701460020794A0832106820F47D
:100C6000604040EAC10010607047F0B500210022EA
:100C70000024022500260223714F08373F6807F041
:100C80000C0121B1042905D0082937D105E0724FA4
:100C9000076036E0714F076033E0694F3F1D3F68E2
:100CA000C7F38056664F3F1D3F6807F03F036EB1A4
:100CB0006A4FB7FBF3F7DFF888C10CF1040CDCF8DE
:100CC00000C0CCF3881C07FB0CF40CE0624FB7FBB0
:100CD000F3F7DFF86CC10CF1040CDCF800C0CCF3C6
:100CE000881C07FB0CF4564F3F1D3F68C7F30147B4
:100CF0007F1C7D00B4FBF5F7076002E0564F0760EC
:100D000000BF00BF4E4F08373F6807F0F0010909E8
:100D1000534F7A5C0768D7404760494F08373F68B0
:100D200007F4E051890A4E4F7A5C4768D7408760E4
:100D3000434F08373F6807F46041490B484F7A5CDE
:100D40004768D740C760F0BD002100F44072B2F59B
:100D5000407F0AD13A4A0832116821F4F811414A19
:100D600002401143364A08321160354A7032126827
:100D7000C0F30B031A43324B70331A607047354986
:100D80004439086070473349403908607047364934
:100D90000860704701460020294A8C32106820F014
:100DA0001F004A1E1043264A8C32106070470146CD
:100DB0000020234A8C32106820F4F8504A1E40EA82
:100DC00002201F4A8C3210607047014600201C4AE6
:100DD0008C32106820F440100843106070470146C0
:100DE0000020174A8C32106820F44000084310603D
:100DF000704701460020124A8C32106820F44030BF
:100E000008431060704719490860704739B10C4AAF
:100E10003032126802430A4B30331A6006E0084A47
:100E2000303212688243064B30331A607047F9B192
:100E3000034A343212680243014B34331A601CE017
:100E400000380240FFFFF6EA103000240030002096
:100E500000004742800E47420024F40040787D01A4
:100E60002C000020FFFCFF0F5C014742E0114742CD
:100E70008F4A126882438E4B1A60704739B18C4A90
:100E8000121D126802438A4B1B1D1A6006E0884A35
:100E9000121D12688243864B1B1D1A60704739B1C0
:100EA000834A0C3212680243814B0C331A6006E00D
:100EB0007F4A0C32126882437D4B0C331A607047B4
:100EC00039B17B4A103212680243794B10331A60F1
:100ED00006E0774A103212688243754B10331A606D
:100EE000704739B1724A243A12680243704B243B6E
:100EF0001A6006E06E4A243A126882436C4B243B27
:100F00001A60704739B16A4A203A12680243684B46
:100F1000203B1A6006E0664A203A12688243644B1E
:100F2000203B1A60704739B1614A1C3A126802438B
:100F30005F4B1C3B1A6006E05D4A1C3A1268824314
:100F40005B4B1C3B1A60704739B1594A143A12681E
:100F50000243574B143B1A6006E0554A143A126894
:100F60008243534B143B1A60704739B1504A103AD0
:100F7000126802434E4B103B1A6006E04C4A103A8E
:100F8000126882434A4B103B1A60704739B1484A95
:100F90001C3212680243464B1C331A6006E0444A76
:100FA0001C3212688243424B1C331A60704739B1BD
:100FB0003F4A2032126802433D4B20331A6006E05C
:100FC0003B4A203212688243394B20331A60704703
:100FD00039B1374A243212680243354B24331A6040
:100FE00006E0334A243212688243314B24331A60BC
:100FF000704739B12E4A2C32126802432C4B2C33E5
:101000001A6006E02A4A2C3212688243284B2C339D
:101010001A60704739B1264A303212680243244BB5
:1010200030331A6006E0224A303212688243204B85
:1010300030331A607047012808D11D493C310968D6
:1010400041F008011A4A3C32116007E018493C316E
:10105000096821F00801164A3C321160704739B125
:10106000134A273A12780243114B273B1A7006E0C5
:101070000F4A273A127882430D4B273B1A7070476C
:101080000B484030006840F08070094940310860EA
:10109000704701460020064A283A12680A400AB101
:1010A000012000E000207047014926390870704790
:1010B0003438024010B50446FA48844208D1012170
:1010C0001020FFF752FF00211020FFF74EFF57E0DE
:1010D000F548844209D101214804FFF735FF00217A
:1010E0004FF40030FFF730FF4AE0F048844209D166
:1010F00001218804FFF728FF00214FF48020FFF72B
:1011000023FF3DE0EA48844209D10121C804FFF7EA
:101110001BFF00214FF40020FFF716FF30E0E548E9
:10112000844209D101210805FFF70EFF00214FF489
:101130008010FFF709FF23E0DF48844208D1012136
:101140002020FFF712FF00212020FFF70EFF17E0FD
:10115000DA48844209D101218807FFF7F5FE002112
:101160004FF08040FFF7F0FE0AE0D548844207D1F7
:1011700001214005FFF7E8FE00216005FFF7E4FECE
:1011800010BD2DE9FF4705460E460024A14600BFCD
:10119000A046B08900B100BF2C8A24F44054F088E6
:1011A00004432C82AC8941F20C608443B0883189BD
:1011B0000843718908430443AC81AC8A24F4407429
:1011C000B0890443AC826846FFF74FFDB5488542BD
:1011D00002D0B948854202D1DDF80C9001E0DDF87B
:1011E0000890A88900F4004040B109EBC90000EB69
:1011F000091031684900B0FBF1F707E009EBC900BD
:1012000000EB091031688900B0FBF1F76420B7FBEF
:10121000F0F004012009642101FB1078A88900F492
:10122000004040B1322000EBC800B0FBF1F000F00C
:101230000700044308E0322000EB08106421B0FBF3
:10124000F1F000F00F0004432C81BDE8FF874FF45C
:101250001651016000218180C18001810C214181F2
:1012600000218181704710B502460020108A20F4C9
:1012700070600B884C8823438C882343CC8823439D
:101280001843108210BD0021018041808180C180FF
:10129000704721B1828942F40052828104E0828940
:1012A0004DF6FF731A4082817047028B02F47F4231
:1012B0000283028B0A430283704721B1828942F480
:1012C0000042828103E08289C2F30E02828170476C
:1012D00021B1828A42F40062828204E0828A4FF263
:1012E000FF731A4082827047C1F308028280704700
:1012F00001468888C0F308007047028A4FF6F073F1
:101300001A400282028A0A430282704721B182890E
:1013100042F00202828104E082894FF6FD731A4096
:101320008281704782894FF2FF731A4082818289DD
:101330000A4382817047028A4FF6DF731A400282A5
:10134000028A0A430282704721B1028A42F4804233
:10135000028204E0028A4BF6FF731A400282704751
:10136000818941F001018181704721B1828A42F077
:101370000802828204E0828A4FF6F7731A40828262
:101380007047028BD2B20283028B42EA01220283AF
:10139000704721B1828A42F02002828204E0828A70
:1013A0004FF6DF731A408282704721B1828A42F081
:1013B0001002828204E0828A4FF6EF731A40828222
:1013C0007047828A4FF6FB731A408282828A0A43F0
:1013D0008282704721B1828A42F00202828204E056
:1013E000828A4FF6FD731A40828270471AB1838A4F
:1013F0000B43838202E0838A8B4383827047F0B57C
:101400000346002400260025002040F66A17B94252
:1014100000D100BF1846C1F3421401F01F06012796
:1014200007FA06F5012C01D10C3004E0022C01D1A1
:10143000103000E014301AB107682F43076002E053
:101440000768AF430760F0BD02460020B1F5007F9A
:1014500000D100BF13880B400BB1012000E0002039
:10146000704701F40072B2F5007F00D100BFCA439B
:101470000280704770B5024600240023002500203A
:1014800040F66A16B14200D100BFC1F3421501F027
:101490001F03012606FA03F3012D13D19689334069
:1014A00017E00000001001400044004000480040E8
:1014B000004C004000500040001401400078004003
:1014C000007C0040022D02D1168A334001E0968A4A
:1014D00033400C12012606FA04F41688344013B186
:1014E0000CB1012000E0002070BD10B500220023E7
:1014F00040F66A14A14200D100BF0A1201249440B0
:10150000A3B2DC43048010BD10B50446FE488442FB
:1015100008D101210846FFF728FD00210120FFF72F
:1015200024FD9DE0B4F1804F08D101210846FFF76A
:101530000BFD00210120FFF707FD91E0F3488442F5
:1015400008D101210220FFF7FFFC00210220FFF754
:10155000FBFC85E0EE48844208D101210420FFF71E
:10156000F3FC00210420FFF7EFFC79E0E948844216
:1015700008D101210820FFF7E7FC00210820FFF730
:10158000E3FC6DE0E448844208D101211020FFF71C
:10159000DBFC00211020FFF7D7FC61E0DF4884422C
:1015A00008D101212020FFF7CFFC00212020FFF7E8
:1015B000CBFC55E0DA48844208D101210220FFF734
:1015C000D4FC00210220FFF7D0FC49E0D54884423A
:1015D00009D101210804FFF7C8FC00214FF4803035
:1015E000FFF7C3FC3CE0D048844209D10121480404
:1015F000FFF7BBFC00214FF40030FFF7B6FC2FE0F3
:10160000CA48844209D101218804FFF7AEFC0021B9
:101610004FF48020FFF7A9FC22E0C548844208D19E
:1016200001214020FFF790FC00214020FFF78CFCB7
:1016300016E0C048844208D101218020FFF784FCD5
:1016400000218020FFF780FC0AE0BB48844207D1DC
:1016500001218015FFF778FC0021A015FFF774FC2D
:1016600010BD00220288A84B98420ED0AC4B984285
:101670000BD0B0F1804F08D0A44B984205D0A44BBA
:10168000984202D0A34B984204D14FF68F731A4070
:101690004B881A43A04B984207D0A04B984204D0E5
:1016A0004FF6FF431A400B891A4302804B68C3620E
:1016B0000B880385944B984202D0994B984201D1F4
:1016C0008B7A03860123838270474FF0FF3141609C
:1016D00000210180018141808172704701858282F1
:1016E00070470A46002101884FF68F731940114355
:1016F0000180704741627047C16270470146486A85
:1017000070470146088D704721B1028842F00202FD
:10171000028004E002884FF6FD731A400280704791
:1017200021B1028842F00402028004E002884FF6F0
:10173000FB731A400280704721B1028842F0800298
:10174000028004E002884FF67F731A4002807047DF
:1017500002884FF6F7731A40028002880A4302801B
:10176000704702884FF6FF431A40028002880A43FE
:101770000280704721B1028842F00102028004E039
:1017800002884FF6FE731A400280704770B500243D
:1017900000220023058C4FF6FE7635400584028C2E
:1017A0008388048B4FF68F752C40B51E2C400D8816
:1017B0002C43751E2A408D892A434D882A43524D59
:1017C000A84202D0564DA84213D14FF6F7752A40D1
:1017D000CD892A434FF6FB752A408D882A434FF660
:1017E000FF652B404FF6FF552B400D8A2B434D8A4A
:1017F0002B43838004838D684563028470BD70B57C
:10180000002400220023058C4FF6EF763540058436
:10181000028C8388048B48F6FF752C404FF6FF45F9
:101820002C400D884FF6FF7606EA05252C434FF62F
:10183000DF752A408D8906EA05152A434D8806EA98
:1018400005152A43304DA84202D0354DA8421DD17E
:101850004FF67F752A40CD894FF6FF7606EA0515CB
:101860002A434FF6BF752A408D8806EA05152A439C
:101870004FF6FF352B404FF2FF752B400D8A06EADD
:1018800085052B434D8A06EA85052B438380048317
:101890008D688563028470BD70B50024002200232A
:1018A000058C4FF6FF6635400584028C8388848B57
:1018B0004FF68F752C404FF6FC752C400D882C434D
:1018C0004FF6FF552A408D894FF6FF7606EA05252B
:1018D0002A434D8806EA05252A430B4DA84202D02B
:1018E0000F4DA84238D14FF2FF752A40CD894FF6EF
:1018F000FF7606EA05252A434FF6FF352A408D88F4
:1019000006EA05252A4319E00000014000040040D2
:1019100000080040000C004000100040001400408F
:1019200000040140004001400044014000480140E3
:1019300000180040001C0040002000404EF6FF75DB
:101940002B404DF6FF752B400D8A06EA05152B43FB
:101950004D8A06EA05152B43838084838D68C56311
:10196000028470BD70B5002200230024058C4EF661
:10197000FF7635400584038C8488828B48F6FF759A
:101980002A404FF6FF452A400D884FF6FF7606EABB
:1019900005252A434DF6FF752B408D8906EA05354E
:1019A0002B434D8806EA05352B43FE4DA84202D055
:1019B000FD4DA84208D14BF6FF752C400D8A4FF61D
:1019C000FF7606EA85152C43848082838D68056442
:1019D000038470BD0021018041808180816081810C
:1019E000C18101824182704770B503460020002406
:1019F0001846183001258D40ACB21D8CA5431D84BE
:101A000009B108290AD100EB610005684FF68F760D
:101A1000354005600568154305600FE00D1FC5F3EF
:101A20004E052844056848F6FF7635400560056890
:101A30004FF6FF7606EA02263543056070BD416326
:101A4000704781637047C1637047016470470A46FD
:101A50000021018B4FF68F731940114301837047AA
:101A60000A460021018B48F6FF7319404FF6FF73B9
:101A700003EA02231943018370470A460021818B40
:101A80004FF68F7319401143818370470A46002136
:101A9000818B48F6FF7319404FF6FF7303EA022368
:101AA0001943818370470A460021018B4FF6F77373
:101AB00019401143018370470A460021018B4FF200
:101AC000FF7319404FF6FF7303EA022319430183A2
:101AD00070470A460021818B4FF6F7731940114376
:101AE000818370470A460021818B4FF2FF731940B2
:101AF0004FF6FF7303EA02231943818370470A46B6
:101B00000021018B4FF6FB7319401143018370478D
:101B10000A460021018B4FF6FF3319404FF6FF7341
:101B200003EA02231943018370470A460021818B8F
:101B30004FF6FB7319401143818370470A46002119
:101B4000818B4FF6FF3319404FF6FF7303EA0223F0
:101B50001943818370470A460021018B4FF67F733A
:101B600019401143018370470A460021018BC1F3DC
:101B70000E014FF6FF7303EA0223194301837047F6
:101B80000A460021818B4FF67F73194011438183F0
:101B900070470A460021818BC1F30E014FF6FF7397
:101BA00003EA02231943818370470A460021018C0E
:101BB0004FF6FD7319401143018470470A46002116
:101BC000018C4FF6F77319401143018470470A46A0
:101BD0000021018C4FF6DF7319404FF6FF7303EAC3
:101BE00002131943018470470A460021018C4FF605
:101BF0007F7319404FF6FF7303EA02131943018400
:101C000070470A460021018C4FF6FF5319404FF6EA
:101C1000FF7303EA02231943018470470A46002137
:101C2000018C4FF2FF7319404FF6FF7303EA022352
:101C30001943018470470A460021018C4DF6FF7359
:101C400019404FF6FF7303EA0233194301847047CA
:101C500030B5002301248C40A3B2048C9C4304843F
:101C6000048C02FA01F5ADB22C43048430BD30B5CA
:101C7000002304248C40A3B2048C9C430484048C71
:101C800002FA01F5ADB22C43048430BD828B4FF2D1
:101C9000FF331A408283828B4FF6FF7303EA0123DE
:101CA0001A4382837047F0B50C4615460021002286
:101CB0000026078C4EF6FF7C07EA0C070784818B11
:101CC000028C4FF6FF7707EA043640F6FF473940AB
:101CD0004FF6FF7707EA052739434FF6FF7707EA04
:101CE0000337394345F6FF773A4046F480573A4385
:101CF00081830284F0BD828B4FF6F3731A40828396
:101D0000828B0A4382837047F0B50C46154600214A
:101D100000220026078C4FF6FF6C07EA0C070784A9
:101D2000818B028C4FF6FF7707EA04264FF60C777B
:101D300039404FF6FF7707EA03172F4339434FF235
:101D4000FF573A4046F480773A4381830284F0BDDE
:101D5000028B4FF2FF331A400283028B4FF6FF7360
:101D600003EA01231A4302837047F0B50C46154677
:101D7000002100220026078C4FF6EF7C07EA0C07B3
:101D80000784018B028C4FF6FF7707EA041640F6B2
:101D9000FF4739404FF6FF7707EA033739434FF6DD
:101DA000FF7703E0000001400004014007EA052737
:101DB00039434FF65F773A4046F010073A430183C4
:101DC0000284F0BD028B4FF6F3731A400283028B3C
:101DD0000A4302837047F0B50C46154600210022E5
:101DE000068C4FF6FE773E400684018B028C4FF640
:101DF0000C7631407E1C06EA03162E4331434FF623
:101E0000F576324044F00106324301830284F0BD8E
:101E100070B505460C46208850B92389A288618890
:101E20002846FFF7D8FFE1882846FFF7CBFF25E0DB
:101E3000208804280AD12389A28861882846FFF7D0
:101E400094FFE1882846FFF783FF17E020880828E1
:101E50000AD12389A28861882846FFF755FFE188C7
:101E60002846FFF748FF09E02389A28861882846B1
:101E7000FFF719FFE1882846FFF708FF70BD002132
:101E800001804180012181800021C1800181704752
:101E90002DE9F04105460C4600260127608808B967
:101EA000022600E00026A088012801D1022700E0D8
:101EB00001272088A0B92389A28861882846FFF7D6
:101EC0008AFFE1882846FFF77DFF23893A4631469D
:101ED0002846FFF74AFFE1882846FFF739FF13E05D
:101EE0002389A28861882846FFF73FFFE1882846BA
:101EF000FFF72EFF23893A4631462846FFF76BFF4E
:101F0000E1882846FFF75EFFBDE8F0810146486B97
:101F100070470146886B70470146C86B70470146A1
:101F2000086C70470A884B881A438B881A43CB8801
:101F30001A430B891A434B891A438B891A43A0F819
:101F4000442070470021018041808180C18001814F
:101F500041818181704731B1B0F8442042F40042A0
:101F6000A0F8442005E0B0F84420C2F30E02A0F827
:101F70004420704721B1828842F00402828004E04C
:101F800082884FF6FB731A408280704721B18288A5
:101F900042F00102828004E082884FF6FE731A400C
:101FA000828070471AB183890B43838102E0838961
:101FB0008B43838170478182704702460020138AD9
:101FC0000B400BB1012000E000207047CA430282A1
:101FD000704730B50246002000230024158A05EA28
:101FE0000103958905EA010413B10CB1012000E059
:101FF000002030BDCA430282704741EA0203A0F8C4
:10200000483070471AB183890B43838102E083898A
:102010008B438381704721B1828842F0080282801D
:1020200004E082884FF6F7731A4082807047018976
:102030004FF6F8721140018170470A46002101896C
:102040004FF68F73194011430181704730B5044634
:102050000D4629462046FFF7F0FF208940F0070093
:10206000208130BD2DE9F04104460D4616461F463D
:10207000602D06D13B46012231462046FFF775FE12
:1020800005E03B46012231462046FFF7A4FE2946E3
:102090002046FFF7D2FF208940F007002081BDE8ED
:1020A000F08130B50C4600210189C9B24FF6FF75A9
:1020B00005EA0325154325432943018130BD2DE958
:1020C000F04105460E4617469846002443463A46D8
:1020D00031462846FFF7E5FF2C894FF6F87004409B
:1020E00044F007044FF68F70044044F070042C81D4
:1020F000BDE8F081F0B504460D4616461F463B4646
:10210000324629462046FFF7CCFF208940F4804024
:102110002081F0BD82884FF68F731A4082808288BA
:102120000A438280704702894FF6F8731A40028191
:1021300002890A430281704702894FF67F731A4071
:10214000028102890A4302817047F0B50C461546A8
:102150001E460021002200230189028B038C4FF6CA
:10216000F877394021434FF6FC473A4040F20117D7
:102170003A434FF6DD773B404FF6FF7707EA061705
:102180002F433B43018102830384F0BD21B1828848
:1021900042F08002828004E082884FF67F731A400A
:1021A00082807047A0F850107047000010B50446B8
:1021B0006FF00400FEF7E8FAE11704EB5171C1F388
:1021C000C701394A11701046007800EB4001C1EB9D
:1021D000C0104FF6FF7101EAC0003449088010BDFD
:1021E0000146314A12784A434FF0E0235A610022F7
:1021F0009A611A46126942F001021A6100BF4FF05B
:10220000E022106900F001021AB100F48032002AC5
:10221000F5D04FF0E022126922F001024FF0E023E6
:102220001A6100229A6170470146204A12884A4387
:102230004FF0E0235A6100229A611A46126942F077
:1022400001021A6100BF4FF0E022106900F00102A4
:102250001AB100F48032002AF5D04FF0E022126962
:1022600022F001024FF0E0231A6100229A617047C8
:1022700070B504464FF4077094FBF0F0C6B24FF40B
:10228000077094FBF0F100FB114085B205E04FF4BC
:102290000770FFF7C9FF701EC6B2002EF7D115B147
:1022A0002846FFF7C1FF70BD3C0000203E00002023
:1022B000014600BF704700BF3C4A128802F040024E
:1022C000002AF9D0C2B2394B9A80704710B588B055
:1022D000044601210846FEF799FD01211020FEF772
:1022E000EFFD072209213248FEF77DFB07220A2174
:1022F0002F48FEF778FB4FF4C060069002208DF85F
:102300001C008DF81D0000208DF81E0001208DF8A6
:102310001F0006A92648FEF7DBFA02940020ADF85C
:102320000C00ADF80E00ADF81000ADF814000C2054
:10233000ADF8120002A91D48FEF723FF01211B483A
:10234000FEF7A7FF012240F225511848FFF757F882
:1023500025208DF8040003208DF805008DF8060077
:1023600001208DF8070001A8FEF7C1F908B010BDE3
:1023700070B5002540F225510C48FFF77BF8A0B15D
:102380000A48FEF7B5FFC4B20848FEF7B1FF06469B
:1023900004F004FD0546284601F0D5F901F0B2F934
:1023A000284601F045FB01F00DFB70BD0010014017
:1023B000000002401CB501210420FEF727FD012189
:1023C0000846FEF723FD1020009001208DF8040040
:1023D00000208DF8060003208DF8050001208DF8FF
:1023E000070069460E48FEF773FA4020009001206E
:1023F0008DF8040000208DF8060003208DF80500FC
:1024000001208DF8070069460648FEF761FA302181
:102410000348FEF7DBFAC0210248FEF7D7FA1CBDDD
:1024200000080240000002401CB501211120FEF707
:10243000EDFC1C20009000208DF8040003208DF896
:10244000050002208DF8070069460748FEF740FAAC
:102450000120009002208DF8070069460348FEF72E
:1024600037FA1CBD014670470010024000000240D0
:1024700030B58BB004460D4601210846FEF720FD1D
:1024800001211020FEF7C2FC01220921FA48FEF7C3
:10249000AAFA4FF40070099002208DF8280003205A
:1024A0008DF8290000208DF82A0001208DF82B00DE
:1024B00009A9F148FEF70CFAA8B2ADF818000020FF
:1024C000ADF81A000794ADF8200006A9EB48FFF715
:1024D000C8F86020ADF804000120ADF80600002027
:1024E000ADF808000220ADF810000020ADF8120091
:1024F00001A9E248FFF74AF90821E048FFF7D3FABB
:102500000121DE48FFF718F90121DC48FFF723FD20
:102510008021DA48FFF710FE2021D848FFF7FAFDA6
:102520000BB030BD30B58BB004460D460121022002
:10253000FEF7C6FC01210420FEF768FC03220621F9
:10254000CF48FEF750FA4020099002208DF828006D
:1025500003208DF8290000208DF82A0001208DF835
:102560002B0009A9C648FEF7B3F9A8B2ADF81800C8
:102570000020ADF81A000794ADF8200006A9C14864
:10258000FFF76FF86020ADF804000120ADF80600F9
:102590000020ADF808000220ADF810000020ADF8D2
:1025A000120001A9B748FFF7F1F80821B548FFF775
:1025B0007AFA0121B348FFF7BFF80121B148FFF7CC
:1025C000CAFC8021AF48FFF7B7FD2021AD48FFF7D7
:1025D000A1FD0BB030BD30B58BB004460D460121D6
:1025E0000220FEF75CFC01210846FEF70FFC0222E8
:1025F0000621A548FEF7F7F94020099002208DF842
:10260000280003208DF8290000208DF82A000120E1
:102610008DF82B0009A99C48FEF75AF9A8B2ADF82D
:1026200018000020ADF81A000794ADF8200006A9A4
:102630009648FFF716F86020ADF804000120ADF8C9
:1026400006000220ADF8100001A99048FFF79EF89F
:1026500008218E48FFF727FA01218C48FFF76CF814
:102660000BB030BD7FB505460C4601210820FEF7B2
:1026700016FC0295A0B2ADF804000020ADF80600EB
:10268000ADF80C0001A98248FEF7EBFF01221146CC
:102690007F48FFF787FC01217D48FFF76BF8322068
:1026A0008DF8000001208DF8010003208DF8020054
:1026B00001208DF803006846FEF719F87FBD1FB5AD
:1026C000044601210420FEF7EAFB02940020ADF845
:1026D0000400ADF80C00ADF8060001A96D48FEF746
:1026E000C0FF00216B48FFF7A8FC6A48083000884B
:1026F00040F0070067490831088000220121654841
:10270000FFF750FC1E208DF8000000208DF801001E
:102710008DF8020001208DF803006846FDF7E7FF01
:102720001FBD1FB5044601210846FEF7B8FB029401
:102730000020ADF80400ADF80C00ADF8060001A9CA
:102740004FF08040FEF78DFF10218806FFF775FCE3
:1027500007214FF08040FFF7E6FC002201218807A7
:10276000FFF720FC1C208DF8000000208DF80100F0
:102770008DF8020001208DF803006846FDF7B7FFD1
:102780001FBD2DE9F04104460F4615460020424981
:1027900008602846FFF793FF01213E48FEF7EAFF55
:1027A00001213C48FFF726FC012211463948FFF77A
:1027B000F9FB21463148FEF79FFF264604EBD67011
:1027C00041102E48FFF73BF901212C48FEF7D2FFBC
:1027D00001212A48FFF7BFFBBDE8F0812DE9F04158
:1027E00004460F46154600202C4908602846FFF78E
:1027F00098FF01218807FEF7BDFF01218807FFF739
:10280000F9FB012211469007FFF7CCFB21461D483A
:10281000FEF772FF264604EBD67041101948FFF709
:102820000EF901211748FEF7A5FF01211548FFF712
:1028300092FBBDE8F08110B501211648FFF7C9FBF6
:10284000C0B101211348FFF7D5FB00210B48FFF76A
:1028500082FB00210948FEF78DFF00210D48FEF79D
:1028600089FF002201210B48FFF79CFB4FF07E50AF
:102870000A49086010BD000000100240000001403D
:102880000008024000040140000002400004004033
:10289000000C0040000800404C00002048000020D0
:1028A00010B501218807FFF794FBC8B10121880703
:1028B000FFF7A0FB00213D48FFF74DFB00213B48FF
:1028C000FEF758FF00214FF08040FEF753FF002233
:1028D00001218807FFF766FB4FF07E5034490860FE
:1028E00010BD10B501213348FFF773FB01285CD1FF
:1028F0003148006808B9012000E000202E49086036
:1029000008460068B8B92D480068416A2C4800683C
:1029100004F094FB2B4908602848016829480068A6
:1029200001F0D9F92548006801F057FA26480068F7
:102930002649086016E021480068C16D24480068F7
:1029400004F07CFB234908601C48016821480068AA
:1029500001F008FA1948006801F0B7FA1E4800684B
:102960001E4908604FF081411D48006804F0AAF933
:1029700017D14FF07E511B48006804F0A3F910D125
:102980004FF07E510A48006804F09CF909D10F48C5
:10299000036812480268144801681448006800F08F
:1029A00012FD01210348FFF725FB10BD0004014083
:1029B0004C000020000C0040500000209C01002032
:1029C00010010020A0010020E80000201C010020D0
:1029D00014010020A4010020E400002018010020C0
:1029E0002C010020480000202401002020010020AC
:1029F0001CB501210846FEF709FA9E20009001202F
:102A00008DF8040000208DF8060003208DF80500E5
:102A100001208DF8070069460348FDF759FF9E2104
:102A20000148FDF7D1FF1CBD0000024003B59DB079
:102A30004FF07E51FE48006804F014F8FC4908602D
:102A4000FC4800884000FC4909884843199004F07C
:102A50008DF91B90F84800884043179004F086F9E0
:102A60001990F44800884043159004F07FF91790BE
:102A70001E99084604F0DAF915901D99084604F0ED
:102A8000D5F91490159903F0EDFF1690179904F0FD
:102A9000D5FA1890199904F0D1FA1A901B9904F0FC
:102AA0004FF8E64908600846006803F0AFFFCDE93B
:102AB000140102F0F7FDCDE91801E14801684FF07B
:102AC000804004F0B3F9159003F0A0FFCDE91601A2
:102AD000DDE9182303F0B0FECDE91A0103F042FA54
:102AE000D84908600846006803F090FFCDE90C0162
:102AF00003F0ACF9CDE91001D248006803F086FF7D
:102B0000CDE9080103F0A2F9CDE90C01CA4800881B
:102B10004043099003F08FFCCDE90A01DDE90C2365
:102B200003F0B4FCCDE90E01DDE9102303F0AEFCA7
:102B3000CDE91401BF48008803F094FCCDE90C01F5
:102B4000C048006803F062FFCDE9040103F030F9EA
:102B5000CDE90801B848008803F084FCCDE90601FE
:102B6000DDE9082303F092FCCDE90A01DDE90C233D
:102B700003F02AFACDE91001AE48008803F072FC98
:102B8000CDE90C01AF48006803F040FFCDE9040136
:102B900003F00EF9CDE90801A748008803F062FCB4
:102BA000CDE90601DDE9082303F070FCCDE90A0157
:102BB000DDE90C2303F008FACDE90E01DDE910236D
:102BC00003F064FCCDE91201DDE9142303F0FCF904
:102BD000CDE918019748008803F044FCCDE90801CD
:102BE0009848006803F012FFCDE9000103F0E0F817
:102BF000CDE904019048008803F034FCCDE90201DE
:102C0000DDE9042303F042FCCDE90601DDE90823F8
:102C100003F0DAF9CDE90C011D9803F0F7FECDE9D8
:102C20000A01DDE90C2303F031FCCDE910018548F0
:102C3000006803F0EBFECDE9080103F007F9CDE9E8
:102C40000C017D48008804F0A9F808901E9904F052
:102C5000EDF8099003F0DAFECDE90A01DDE90C2375
:102C600003F014FCCDE90E01DDE9102303F0ACF90B
:102C7000CDE9120103F076F9159003F0C7FECDE916
:102C80001601DDE9182303F04FFACDE91A0103F02C
:102C900069F96D4908600846006803F0B7FECDE9A0
:102CA000180102F0FFFCCDE91A0103F05BF9674956
:102CB00008606748008840006649098848431990C1
:102CC00004F054F81B90634800884043179004F0C8
:102CD0004DF819905E4800884043159004F046F87E
:102CE00017901E99084604F0A1F815905A480088DC
:102CF00004F054F811901D9904F095F9139056487A
:102D0000008804F04BF811901D9904F08CF9129092
:102D1000139904F08BF81490159903F0A3FE169004
:102D2000179904F08BF91890199904F087F91A9003
:102D30001B9903F005FF494908600846006803F045
:102D400065FECDE9140102F0ADFCCDE918013C4867
:102D500001684FF0804004F069F8159003F056FECA
:102D6000CDE91601DDE9182303F066FDCDE91A016E
:102D700003F0F8F83A4908603748008804F00EF884
:102D80001B901D9904F05AF93649086034480068D0
:102D900003F03CFECDE9140103F058F8CDE9180129
:102DA0002B48008803F05EFBCDE91601DDE918230E
:102DB00003F06CFBCDE91A0103F0D4F82A4908604E
:102DC0002748006803F022FECDE9100102F0F0FF71
:102DD000CDE914011E48008803F044FBCDE912013F
:102DE000DDE9142303F052FBCDE9180119480088EE
:102DF00003F038FBCDE91601DDE9182303F0E4F810
:102E0000CDE91A0103F0AEF81849086008460168D8
:102E1000006804F00BF8109013480168006804F093
:102E200005F80F90109903F01DFE119020E00000AE
:102E3000D400002064000020660000207000002004
:102E4000900000207C000020740000208000002002
:102E5000680000206A0000206C000020780000203C
:102E60008400002094000020980000209C00002096
:102E700003F0CCFDCDE9120103F038F8CDE91601DD
:102E8000FA48006803F0C2FDCDE91401DDE916231C
:102E900003F04AF9CDE9180102F004FCCDE91A016A
:102EA00003F060F8F2490860F2480168006803F036
:102EB000BDFF0C90ED480168006803F0B7FF0B9070
:102EC0000C9903F0CFFD0D9003F0A0FDCDE90E01AC
:102ED00003F00CF8CDE91201E748006803F096FD15
:102EE000CDE91001DDE9122303F01EF9CDE914014B
:102EF00002F016FDCDE91801DD48006803F086FDFB
:102F0000CDE91601DDE9182303F096FCCDE91A019D
:102F100003F028F8D9490860D9480168D948006801
:102F200003F00EFED8491B9003F080FFD7490860DC
:102F3000D3480168D148006803F002FED2491A90D4
:102F400003F074FFD0491B9004F06DF8D04908607D
:102F5000CC480068CF490860C8480168C848006884
:102F600004F06CF8CC490860CC480168C748006898
:102F700004F028F803D80020C949086002E00120C5
:102F8000C7490860C7480168C148006804F01AF8DA
:102F900004D80020C2490831086003E00120C0497C
:102FA00008310860BD480168B848006804F046F878
:102FB000139003F02BFD21F000410022BA4BCDE924
:102FC000140103F063FA0022B84BCDE9160103F0B7
:102FD000ABF80022B64BCDE9180103F02DFCCDE98A
:102FE0001A0102F0BFFFB3490860AE480168A84863
:102FF000006804F023F8139003F008FD21F000416D
:103000000022A94BCDE9140103F040FA0022A74B9E
:10301000CDE9160103F088F80022A54BCDE918018F
:1030200003F00AFCCDE91A0102F09CFFA2490860F6
:103030004FF07E519F48006803F0C4FE03D84FF064
:103040007E509C4908604FF07E519B48006803F019
:10305000B9FE03D84FF07E50974908609548006844
:1030600003F0D4FC0022954BCDE9180102F0ACFF2F
:10307000CDE91A0103F0B0F9914908608E48006863
:1030800003F0C4FC00228D4BCDE9180102F09CFF37
:10309000CDE91A0103F0A0F98A4908608A4800685E
:1030A00003F044FE80B21B908548142102681B98EF
:1030B000FFF767FB8448006803F038FE80B21B907E
:1030C0008048142102681B98FFF788FB6F4800684E
:1030D000724908606E480068724908601FB000BD00
:1030E00010B500206E4908607849C1F88C02764816
:1030F000006803F01BFE84B2072214212046FFF76C
:1031000040FB7148006803F011FE84B20B221421C9
:103110002046FFF763FB10BD10B56D496D48006890
:1031200003F0D0FD25D16C480078012821D10A2078
:10313000FFF79EF80020684908706848008858B971
:1031400063496448006803F0BDFD05D16348008809
:10315000401C6249088015E060480088032811DCA3
:103160004F48006808B9012000E000204C49086081
:1031700008E000215748006803F0A4FD02D10120B7
:103180005549087055480088012806D10220534946
:10319000088001215248FEF7EDFA40215148FDF721
:1031A000F9FB30B94D480088022802D103204B4971
:1031B000088040214B48FDF7EDFB01282BD10A2068
:1031C000FFF756F840214748FDF7E4FB012822D1DC
:1031D0004248008803281ED104204049088000216D
:1031E0003F48FEF7C7FA6420FFF742F82C48006812
:1031F00050B901202A4908604FF4D25214214FF4EB
:10320000FA70FFF7BEFA06E041F6BC3214214FF423
:10321000FA70FFF7B6FA2E493348006803F052FD02
:103220006CD132480078012868D10A20FFF720F8D5
:1032300000202E4908702E48008858B924492A4891
:10324000006803F03FFD05D129480088401C28494B
:1032500008805CE026480088032858DC10480830C5
:10326000006808B9012046E044E047E098000020EB
:10327000880000209C000020940000208C0000208A
:10328000900000208000002000003443A0000020B7
:10329000A40000200401002008010020A800002054
:1032A00084024042AC0000200088F3400080764059
:1032B0000000F03FDC000020E00000200000E03FC4
:1032C000EC000020F00000206000002000004042E0
:1032D0000000C84260010020540000205600002079
:1032E00000000140001002405C0100205800002056
:1032F0005A0000200020E349086008E00021E2486D
:10330000006803F0DFFC02D10120E0490870E048CA
:103310000088012806D10220DD4908800121DD480E
:10332000FEF728FA2021DC48FDF734FB30B9D848F5
:103330000088022802D10320D54908802021D648E0
:10334000FDF728FB01282CD10A20FEF791FF202150
:10335000D148FDF71FFB012823D1CD480088032861
:103360001FD10420CA4908800021CA48FEF702FA8A
:103370006420FEF77DFFC348006801280AD10020C1
:10338000C049086041F6821214214FF4FA70FFF729
:1033900025FA06E041F6AE2214214FF4FA70FFF749
:1033A0001DFABE48008804280BD1B94800880428BB
:1033B00007D14FF07E50BA490860BA490860012031
:1033C00010BD0020FCE72DE9FF4F83B00446914675
:1033D0009A464946204603F026FEB3490860504607
:1033E000049903F02BFEB14908600021AE48006843
:1033F00003F068FC0BD10021AC48006803F062FCCC
:1034000005D10020AA490860AA49086029E0A74818
:103410000168006803F00AFD0290A3480168006893
:1034200003F004FD0190029903F01CFB834603F0B6
:10343000EDFA074602F05AFD054602F093FD9E495B
:103440000860084601689848006803F079FB9849CD
:103450000860994801689548006803F071FB954938
:103460000860964801689248006803F0DFFC054652
:10347000214603F0F7FA92490860904801688D48A8
:10348000006803F0D3FC0546049903F0EBFA8D497C
:1034900008608B4800688C4908608A4800688B493E
:1034A0000860874800688A4908608648006889493A
:1034B00008608448016882480068FFF7B7FA4FF057
:1034C0007E517E48006803F0CDFA7C49086007B061
:1034D000BDE8F08F2DE9FF5F7F48006803F096FAA2
:1034E000824602F065FC06460F467C48008802F0E2
:1034F000B9FF804632463B4602F0C8FF04460D46FF
:103500007748008802F0AEFF22462B46CDE9000145
:1035100002F05AFDCDE9020102F024FD7149086074
:103520006D48006803F072FA824602F08FFC804614
:1035300089466A48008802F095FF064642464B4697
:1035400002F0A4FF044602F00DFD674908606748D9
:10355000006803F05BFA04460D46624801685C4867
:10356000006803F06BFD02905F48016859480068ED
:1035700003F064FD0190029903F0E2FA039003F076
:1035800045FA804602F004FB064622462B4602F02E
:103590001BFD824602F0E6FC554908604FF0804171
:1035A0005248006803F0CCFA0446514801682046AE
:1035B00003F039FD4E4908600846006803F026FA1A
:1035C000064602F043FC04460D464A48006803F0F4
:1035D0001DFA804622462B4602F058FF82468B4653
:1035E0004348006803F012FA804602F0E1FB04460B
:1035F0000D464148006803F009FA064622462B466C
:1036000002F044FF52465B46CDE9000103F014F995
:10361000CDE9020102F0A6FC384908603448006890
:1036200003F0F4F9064602F0C3FB804689463148B0
:10363000006803F0EBF9044642464B4602F026FFD1
:1036400082468B462A48006803F0E0F9064602F0FD
:10365000FDFB04460D462848006803F0D7F9804674
:1036600022462B4602F012FF52465B46CDE900018E
:1036700002F0AAFCCDE9020102F074FC20490860C6
:10368000BDE8FF9F8C0240425C01002058000020F2
:103690005A000020000401400010024056000020A3
:1036A000480000204C000020B0000020B4000020A2
:1036B000B8000020BC000020D8000020D00000206E
:1036C000C8000020CC000020E4000020E80000201A
:1036D000F4000020F8000020080100206A0000200B
:1036E0006C000020FC000020000100209000002061
:1036F0000C0100208801002084010020100100201E
:103700001401002095488068954908609348006935
:103710009449086091488069934908608F48006A1D
:10372000924908608D48806A914908608B48006B17
:10373000904908608948806B8F4908608748006C11
:103740008E490860704710B5044600218C48006817
:1037500003F0B8FA0BD18B49204603F0B3FA06D137
:103760004FF07E50864908607C480460F5E04FF0D9
:103770007E518348006803F0A5FA0BD182492046A8
:1037800003F0A0FA06D14FF080407D4908607348ED
:103790004460E2E04FF080417948006803F092FA1B
:1037A00005D17A48764908606C488460D5E077494D
:1037B0007348006803F086FA06D14FF081407049E3
:1037C00008606648C460C8E04FF081416C480068FA
:1037D00003F078FA05D16E48694908605F480461D2
:1037E000BBE06B496648006803F06CFA05D1694894
:1037F0006349086059484461AFE066496048006821
:1038000003F060FA05D164485D490860534884615B
:10381000A3E061495A48006803F054FA06D14FF01A
:103820008240574908604D48C46196E04FF082419C
:103830005348006803F046FA05D1584850490860DB
:103840004648046289E055494D48006803F03AFA59
:1038500005D153484A490860404844627DE05049D8
:103860004748006803F02EFA05D14E4844490860E5
:103870003A48846271E04B494148006803F022FAFB
:1038800005D149483E4908603448C46265E046496C
:103890003B48006803F016FA05D1444838490860EF
:1038A0002E48046359E041493548006803F00AFA9C
:1038B00005D13F4832490860284844634DE03C49FF
:1038C0002F48006803F0FEF905D13A482C490860FA
:1038D0002248846341E037492948006803F0F2F93F
:1038E00006D14FF08340264908601C48C46334E089
:1038F0004FF083412248006803F0E4F905D12E48D7
:103900001F4908601548046427E02B491C480068DB
:1039100003F0D8F90CD12949204603F0D3F91CD182
:103920000020174908600D484464FFF7EBFE14E0DF
:10393000002013490860224908600AE00020074976
:103940001F4A126841F822001D480068401C1C49AB
:1039500008601B4800681228F0DB10BDB001002091
:103960005C0100206001002064010020680100204B
:103970006C010020700100207401002078010020FB
:1039800080010020000030420000904100004040D3
:103990000000A0400000C0400000E04000001041D6
:1039A0000000204100003041000040410000504133
:1039B0000000604100007041000088410000B642F4
:1039C0007C01002010B5A0488068A04908609E488E
:1039D00000699F4908609C4880699E4908609A4830
:1039E000006A9D49086000219A48006803F06AF95E
:1039F00006D19648006880F000409449086003E0D2
:103A0000924800689149086000219348006803F0DB
:103A100059F906D18E48006880F000408C49086052
:103A200003E08B4800688A490860FFF753FD10BD2A
:103A300010B5044600218948006803F043F90BD112
:103A40008749204603F03EF906D14FF07E50834966
:103A500008607D480460F5E04FF07E517F480068C3
:103A600003F030F90BD17F49204603F02BF906D142
:103A70004FF080407949086073484460E2E04FF0BD
:103A800080417648006803F01DF905D176487349F6
:103A900008606D488460D5E073497048006803F0A1
:103AA00011F906D14FF081406C4908606648C46046
:103AB000C8E04FF081416948006803F003F905D17F
:103AC0006A486649086060480461BBE0674963482A
:103AD000006803F0F7F805D16548604908605A4866
:103AE0004461AFE062495D48006803F0EBF805D13E
:103AF00060485A49086054488461A3E05D495748CA
:103B0000006803F0DFF806D14FF0824053490860A7
:103B10004D48C46196E04FF082415048006803F080
:103B2000D1F805D154484D4908604748046289E0FE
:103B300051494A48006803F0C5F805D14F48474944
:103B40000860414844627DE04C494448006803F005
:103B5000B9F805D14A48414908603B48846271E0A0
:103B600047493E48006803F0ADF805D145483B4958
:103B700008603548C46265E042493848006803F08F
:103B8000A1F805D14048354908602F48046359E041
:103B90003D493248006803F095F805D13B482F496C
:103BA0000860294844634DE038492C48006803F018
:103BB00089F805D13648294908602348846341E0E3
:103BC00033492648006803F07DF806D14FF0834062
:103BD000224908601C48C46334E04FF083411F4809
:103BE000006803F06FF805D12A481C4908601648A0
:103BF000046427E027491948006803F063F80CD1F2
:103C00002549204603F05EF81CD1002013490860C6
:103C10000D484464FFF7D6FE14E000200F49086009
:103C20001E4908600AE0002007491C4A126841F852
:103C300022001A480068401C1849086017480068AC
:103C40001228F0DB10BD00000402002084010020D7
:103C5000880100208C0100209001002098010020A4
:103C60000000704200004842000040400000A040B8
:103C70000000C0400000E040000010410000204172
:103C80000000304100004041000050410000604110
:103C900000007041000088410000D64294010020DD
:103CA000C648C749096848610020C5490968C86114
:103CB000C448C349096848627047C048C049096898
:103CC000C8640020BE49096848654FF07E50BC4971
:103CD0000968C865704770B505460C46BA48006863
:103CE000401CB9490860FFF7DBFF25600021206810
:103CF00003F068F903D84FF07E50E06201E0002045
:103D0000E0620021606B02F0DDFF03D00020AF49CC
:103D1000086002E00120AD490860D4E90B0103F01E
:103D20008DF96063A8480068052807D1D4E900012F
:103D300003F084F9A0620020A3490860216860694B
:103D400003F074F8A060A16AE06903F06FF82061E5
:103D50002169A06802F086FE206220686060E06A47
:103D6000206370BD70B505460C4699480068401C3C
:103D700097490860FFF7A1FFA5630021A06B03F03E
:103D800021F903D84FF07E50606601E000206066A4
:103D90008F480068052807D1D4E90E0103F04EF9D9
:103DA000206600208A490860D4E9190103F046F929
:103DB000E066A16BE06C03F039F82064216E606D61
:103DC00003F034F8A064A16C206C02F04BFEA065F7
:103DD000A06BE063606EA06670BD70B50446002104
:103DE000606B02F06FFF11D17A497B48006803F0E5
:103DF000E9F80BD879480068012807D1784821688C
:103E0000006802F02FFE7749086019E07149724896
:103E1000006803F0D7F813D84FF07E50724908605D
:103E20006F480068714908606D4800686D49086016
:103E30006F4800686F4908606D4800686E49086007
:103E40000021206A03F0BEF806D86C48216A02F00F
:103E500077FE6B4908600AE00020216A03F0EEF863
:103E600005462946654802F06BFE654908606549CC
:103E70006348006802F0A6FF02D862486049086003
:103E800061495F48006803F09DF802D85E485C49CC
:103E900008605E495648006803F094F811D95C49FF
:103EA0005348006802F08EFF0BD956494C48006811
:103EB00003F088F805D957494948006802F082FFA5
:103EC00002D851484E49086070BD70B504460021C3
:103ED000E06E02F0F7FE11D13E493F48006803F062
:103EE00071F80BD83D480068012807D14048A16B04
:103EF000006802F0B7FD4049086019E035493648CE
:103F0000006803F05FF813D84FF07E503649086020
:103F10003748006837490860354800683649086006
:103F20002F480068314908602D4800682D49086015
:103F30000021A06D03F046F806D83048A16D02F0CC
:103F4000FFFD2F4908600AE00020A16D03F076F81C
:103F500005462946294802F0F3FD29490860294908
:103F60002748006802F02EFF02D82648244908603E
:103F700025492348006803F025F802D82248204943
:103F8000086022491A48006803F01CF811D920493A
:103F90001748006802F016FF0BD91A49104800684C
:103FA00003F010F805D91B490D48006802F00AFF1C
:103FB00002D815481249086070BD00000000A040FA
:103FC0009C010020000020C0A80100209002414276
:103FD000AC010020000040402C01002030010020F6
:103FE000E400002018010020D00000202001002063
:103FF000E8000020240100201C01002000409C4516
:10400000600000200000484300409C460000E1435F
:104010000000964300004842704700000FB4044976
:1040200010B503AA029800F0A9FA10BC5DF814FBC1
:10403000400000202DE9F0474FF0000A8946044671
:10404000C0F820A02046E1688847002876D02528BF
:1040500006D0D4E901219047206A401C2062F1E794
:10406000E168204600258847C4F81CA006460027C2
:10407000C4F818A02A2E09D0304601F00BFB38B343
:1040800004EB8708303EC8F8186019E059F8041BA3
:10409000204604EB87029161E1688847012F0646BC
:1040A00018D1E069002820DA25F020051DE0D8F8B5
:1040B000180000EB800006EB40003038C8F818000C
:1040C0002046E1688847064601F0E4FA0028EED170
:1040D000012F0AD02E2E08D12046E16888477F1C88
:1040E0000646022F45F02005C4DBA069002803DA4C
:1040F000404245F00105A061E80701D025F0100518
:10410000B6B1A6F14100192802D8203645F4006561
:104110004A463146204625604D46FCF78FF858B197
:10412000012806D0ED1D25F0070000F1080989E7F8
:1041300004E005F1040985E730468AE7206ABDE816
:10414000F087704770477047704710B500F02CFA41
:10415000006810BD10B5044600F026FA046010BDDA
:1041600070472DE9FF4F0C461E464FF0FF378BB0CE
:10417000D2E90001DDF860800A908A46C1F30A5551
:1041800005B93D46002108464FF00000BAF1000F86
:1041900000F4400005DA00EB80004FF4400101EA32
:1041A00050004FEA9059B9F1010F00DDB9460A9865
:1041B00050EA4A000ED044F61050A5F2FF354543B0
:1041C0002F14B8F1000F1ED07542291E1EDDC9F153
:1041D00000021CE0B8F1010F4FF0000001D03021C7
:1041E00003E0F24305E02154401CB042FBDB3046C3
:1041F0000022002121540B99C1F80880C1E9002058
:104200000FB0BDE8F08FBD1B6D1CDEE74A4600DA3B
:10421000694206A800F06AFA06AB93E8070003AB10
:1042200083E8070050460A9900F044FB8DE8070038
:10423000A0F500501F3800900398002D09DD42F2D0
:104240001F014A46084403A90390684600F0A3FDF5
:1042500008E0A0F500504A461F3803A903906846BD
:1042600000F0ADFD8DE807000004000C03D04FF016
:10427000FF30410800E01046B8F1000F03D00022E3
:10428000009215461EE0751E05D400F091F93032FB
:1042900062556D1EF9D5B3460122084302D00022B3
:1042A0007F1C04E02078302801D100227F1E002AE4
:1042B000099786D01DE0112D07DA00F079F9303228
:1042C00062556D1C50EA0102F5D1084302D00098F6
:1042D000C8B10EE00021681E05E0235C625C6354F7
:1042E0002254401E491C8142F7DBAB46A81B401EEE
:1042F0000990002004F80B000B98099AC0F8088078
:10430000C0E9002B7CE711264FF0000859E72DE9A2
:10431000F04F88460446D21D22F0070191B0D1E942
:104320000001CDE90A0100F080FE02460B98C00FA3
:1043300001D02D2007E02068810701D52B2002E065
:10434000202101EAC000032A099001D0072A05DBD9
:1043500003464146204600F089F90BE120788006AB
:1043600001D5E06900E00620B8F1650F814606D06E
:10437000B8F1660F18D0B8F1670F70D131E00020A6
:10438000B9F1110F009001DB112301E009F10103E4
:104390000AAA01A90CA8FFF7E4FEDDE90C700026CB
:1043A00009F10105834647E001204B4600904FF09C
:1043B00000470AAA01A90CA8FFF7D3FEDDE90DB05A
:1043C0000C995D46002610B909F101000D18B9EBF2
:1043D000050003D4C0F1FF3609F10105A5EB090082
:1043E0002BE0B9F1010F01DA4FF001090020B9F11A
:1043F000110F0090484601DD112300E003460AAA90
:1044000001A90CA8FFF7ADFEDDE90C704D460026B2
:104410008346207800070AD4AB4500DA5D4601A840
:10442000012D04DD411911F8011C302907D04F4539
:1044300002DA17F1040F04DA012082460FE06D1E44
:10444000EEE7002F02DCED1B3E4403E0781CA8429F
:1044500000DD7D1CB81B00F1010A4FF000472078F9
:10446000000703D4AA4501DB4FF0FF3A0021B7F162
:10447000004F0DF143088DF8431024D002202B2368
:10448000002F01DA7F422D230A21021EA0F1010034
:1044900000DC5FB197FBF1FC97FBF1F201FB1C7CA8
:1044A00017460CF1300C08F801CDEEE7A8F1010039
:1044B00003702188090501D5452100E06521A0F19F
:1044C000010800F8011C09980FA9A1EB0807FF1DBE
:1044D00000B10120411901EBEA70A1693844081AC2
:1044E000401EA0612078C00602D42046AFF30080B1
:1044F000099828B1D4E901219047206A401C206224
:104500002078C00622D52046AFF300801EE0002EA2
:1045100004DBB34502DD01A8805D00E03020D4E972
:1045200001219047206A401C2062761CAAF10100FC
:104530005FEA000A0AD100F033F8C0680168405C05
:10454000D4E901219047206A401C2062281EA5F171
:104550000105DCDC07E0D4E9012118F8010B9047E4
:10456000206A401C2062381EA7F10107F3DC2046B8
:10457000AFF30080032011B043E60000074B70B595
:104580000D467B4400F05FF80446284600F01CF915
:1045900010B14FF0FF3070BD204670BD31DDFFFF20
:1045A00000487047DC02002000487047BC02002031
:1045B00030B5B0F10A024FEA900E71F100034EEAF5
:1045C000817EB0EB0E0061EB91014FEA101E4EEAC6
:1045D000017E10EB0E0041EB11114FEA102E4EEA56
:1045E000016E10EB0E0041EB11214FEA104E4EEA26
:1045F000014E10EB0E0041EB1141401841F100015A
:104600004FEAD00040EA41704FEAD10110EB80053B
:104610004FEA810444EA907444EB01046D1944EBC1
:104620000404521BA3414FF0000348BF0A3200D5D7
:1046300030BD401C41F1000130BD000001694A1C41
:1046400002610878704700B58FB0CDE901310021D3
:10465000059105497944CDE9031011466846FFF7F5
:10466000E9FC0FB000BD0000E5FFFFFF2DE9F041C0
:104670001F46044603260168072A01F4006004DB94
:1046800008B116A505E016A503E008B115A500E0E0
:1046900015A521F010002060A069C01EA0610FB117
:1046A000401EA0612046AFF300804FB1D4E9012144
:1046B00038469047206A401C2062C01C206206E0F9
:1046C000206AFAE7D4E9012115F8010B9047761E1C
:1046D000F8D22046AFF30080BDE8F0814E414E0095
:1046E0006E616E00494E4600696E66002DE9F04726
:1046F000814616468AB0334878440DC88DE80D00CF
:1047000030487844801C03AC0DC884E80D0041F6A5
:104710009B300844372190FBF1F290FBF1F5A5F1B5
:10472000800501FB12041B3C02D56442012000E01D
:104730000020DFF890A080460027FA44AAF1BE0AC4
:104740000DE0E00709D03246684607EB47010AEB67
:10475000810100F034FB8DE8070064107F1C002C01
:10476000EFD1184F7F44AC3F18E0E80714D007EBB7
:1047700004100DF1180A90E80E008AE80E00C068D7
:10478000F04201D198190890324606A903A800F01A
:1047900016FB03AB83E807006D10641C002DE4D109
:1047A00032466946B8F1000F03A802D000F0F3FAD0
:1047B00001E000F004FBC9E90001C9F808200AB0D3
:1047C000BDE8F087F82D0000007B00F08000704706
:1047D00000487047BC0200207546FFF7F9FFAE465F
:1047E00005006946534620F00700854618B020B5FD
:1047F000FBF766FFBDE820404FF000064FF00007D2
:104800004FF000084FF0000B21F00701AC46ACE878
:10481000C009ACE8C009ACE8C009ACE8C0098D46E5
:10482000704710B50446AFF300802046BDE8104045
:10483000FBF71EBD4FF0013C50F8042B51F8043B30
:104840009A4221D1A2EB0C03934313EACC1317D164
:1048500050F8042B51F8043B9A4215D1A2EB0C03FB
:10486000934313EACC130BD150F8042B51F8043BBB
:104870009A4209D1A2EB0C03934313EACC13DBD089
:104880004FF00000704700BFD01A01BAB1FA81F1B1
:1048900001F0180122FA01F0CB40C1F12001DBB296
:1048A000C0B2C01A2CFA01F3D11A914311EAC31114
:1048B000E6D170475FEA400C08BF91F0000F4FEA65
:1048C0008C234FEAC12243EA51514FEA1C5018BFD2
:1048D00000F5F0404FEA300018BF41F000415FEAB8
:1048E0006C5C00F02980BCF1FF3F08BF40F08040C5
:1048F0007047130C06BF12044FF0100C4FF0000C61
:10490000130E04BF12020CF1080C130F04BF1201A6
:104910000CF1040C930F04BF92000CF1020CD30FA6
:1049200004BF52000CF1010C11464FF00002A0F13F
:104930001F00A0EB0C00704711F0004F08BF70473C
:1049400031F000413FF4D5AF0B0C06BF09044FF026
:10495000100C4FF0000C0B0E04BF09020CF1080CF8
:104960000B0F04BF09010CF1040C8B0F04BF89006D
:104970000CF1020CCB0F04BF49000CF1010CCCF17F
:104980002003A0EB0C0022FA03F302FA0CF241EA36
:10499000030100F10100704720F07F4C80EA030022
:1049A00023F07F47ACEB070303F57C5300F0004096
:1049B00003F1FF032DE980494FEA154B09B44FEA93
:1049C000144325EA0B4E24EA03480FF2042606EBB3
:1049D000132749083E785FEA320203FB0667C7F5F2
:1049E000000707FB06F64FEA54374FEAD64606F1B2
:1049F000020607FB066CCCF1005C4FEA1C472CEA70
:104A0000074C07FB06F40CFB06F504EB15464FEAD2
:104A1000961634BF00204FF000404FEAD13706FB16
:104A200007FC4FEA1C4C0CFB0BF7D21B03FB0CF7EB
:104A300061EB07010CFB0EF7B0EB074072EB17427E
:104A40000CFB08F734BFA2EB0742B2EB074261EB65
:104A500017414FEA0C444FEA910706FB07FC4FEA67
:104A60001C4C0CFB0BF7B0EBC74072EB573203FB4F
:104A70000CF734BFA2EBC742B2EBC74261EB573130
:104A80000CFB0EF7B0EBC70072EB57720CFB08F78C
:104A900034BFA2EBC702B2EBC70261EB5771039FB1
:104AA0004FEA816141EA921104EBCC044FEAD1371D
:104AB0004FEA826206FB07FC42EA90124FEA8060EE
:104AC0004FEA1C4C0CFB0BF7D21B03FB0CF761EB02
:104AD00007010CFB0EF7B0EB074072EB17420CFB23
:104AE00008F734BFA2EB0742B2EB074261EB174174
:104AF0004FEA8C554FEA910704EB9C2406FB07FC18
:104B00004FEA1C4C0CFB0BF7B0EBC74072EB573273
:104B100003FB0CF734BFA2EBC742B2EBC74261EB19
:104B200057310CFB0EF7B0EBC70072EB57720CFB62
:104B300008F734BFA2EBC702B2EBC70261EB5771B3
:104B400015EB4C254FEA816141EA92114FEA8262EE
:104B50004FEAD13742EA901206FB07FC44F1000409
:104B60004FEA80604FEA1C4C0CFB0BF7D21B03FB97
:104B70000CF761EB07010CFB0EF7B0EB074072EB93
:104B800017420CFB08F734BFA2EB0742B2EB074217
:104B900061EB174115EB1C154FEA813141EA924157
:104BA0004FEA823242EA90424FEA80304FEA0C7676
:104BB00044F1000448EA03434EEA0B484FF0000E6C
:104BC000B2EB080C71EB030724BF624639464EEB8B
:104BD0000E0E4FF0000B0018524149414BEB0B0BEE
:104BE000B2EB080C71EB03077BF1000B24BF6246AC
:104BF00039464EEB0E0E4FF0000B00185241494162
:104C00004BEB0B0BB2EB080C71EB03077BF1000BCA
:104C100024BF624639464EEB0E0E51EA020718BF1A
:104C200046F0010616EB0E7655F1000254F1000134
:104C300003D5BDE88901BDE80088BDE88901BDE86C
:104C40000048B619524141EB0101A3F1010370473D
:104C500080807F7E7D7C7B7A7978777676757473B9
:104C6000727171706F6E6E6D6C6C6B6A6A69686878
:104C7000676666656464636362616160605F5F5E0E
:104C80005E5D5D5C5C5B5B5A5A5959585857575684
:104C900056555555545453535252525151505050E9
:104CA0004F4F4F4E4E4D4D4D4C4C4C4B4B4B4A4A3B
:104CB0004A4949494848484747474746464645457F
:104CC00045444444444343434342424242414141B8
:104CD000002B26D4770021D01CB54FEA370703B448
:104CE0004FF010004FF010014FF000000FBCBDE876
:104CF00010400BF1010BBBF1010F08BF5FEA170772
:104D000022BF12F1010211F101014FF0004143F104
:104D1000000300F0004043EA00007047F9D3570851
:104D2000DAE746EA064613F1400F4FEA16461FDD62
:104D300013F1200FDFBF16430A46002120335B42E8
:104D4000C8D0C3F1200746EA064602FA07F74FEA41
:104D5000164646EA0706C3F1200722FA03F201FAD3
:104D600007F721FA03F14FF0000342EA0702B1E727
:104D700046EA020646EA06464FEA164646EA0106B3
:104D8000BCBF46EA0646360C4FF000034FF0000267
:104D90004FF000019EE72DE9C048934630B491E8FA
:104DA000380007C831EA400C48BF34EA430C03D549
:104DB000FFF7F2FDFFF78CFFF0BCBDE800882DE99E
:104DC000C048934630B491E8380007C810F0804FCF
:104DD00008BF13F0804F03D100F005F8FFF778FF0C
:104DE000F0BCBDE8008820F07F4780EA030023F094
:104DF0007F4C07EB0C03A3F57C5300F00040A3F1BC
:104E0000FE0392F0000F00F0B38095F0000F00F069
:104E100077802DE901494FEA11404FEA144621EA13
:104E2000004800FB06FC24EA064708FB06F607FBE1
:104E300008F800FB07F718EB06484CEB164C4FEA56
:104E4000124B18EB07484FEA15464CEB174022EA85
:104E50000B4E0BFB06FC25EA06470EFB06F607FB8E
:104E60000EFE0BFB07F71EEB064E4CEB164C4FF0FD
:104E700000061EEB074E4CEB174B18EB0B0840F1EE
:104E8000000018EB0E0B58EB000840F100008F1AE1
:104E90004FF000013CBFC943661B14BFB5EB040CC7
:104EA00000213CBFC943F61B4FEA17444EEA8E0E61
:104EB00027EA04454FEA1C4704FB07622CEA074C2B
:104EC00005FB07F70CFB05F604FB0CFC16EB07468D
:104ED00042EB174216EB0C4642EB1C421BEB06065C
:104EE00058EB0202414146EA9E0601D5BDE8018920
:104EF000B619524141EB0101A3F10103BDE801895B
:104F00004FEA14454FEA114724EA054621EA074CC7
:104F100005FB07F406FB07F70CFB06F105FB0CFC91
:104F200011EB074144EB17444FEA124711EB0C41D8
:104F300044EB1C4422EA074C05FB07F206FB07F78B
:104F40000CFB06F605FB0CFC16EB074642EB174282
:104F500016EB0C4642EB1C456A1854F1000148BFA1
:104F60007047B619524141EB0101A3F101037047AB
:104F700095F0000F37D04FEA11424FEA144721EA6B
:104F8000024624EA074C02FB07F106FB07F70CFB7D
:104F900006F402FB0CFC14EB074441EB17414FEA0B
:104FA000154714EB0C4441EB1C4125EA074C02FB6E
:104FB00007F506FB07F70CFB06F602FB0CFC16EBED
:104FC000074645EB174516EB0C4645EB1C421219FC
:104FD00051F1000148BF7047B619524141EB010140
:104FE000A3F1010370474FEA14454FEA114724EA41
:104FF000054621EA074C05FB07F106FB07F70CFB0A
:1050000006F24FF0000605FB0CFC12EB074241EBE9
:10501000174112EB0C4251EB1C4148BF70479218EC
:1050200041EB0101A3F101037047490050EAC1209F
:1050300018BF04204A0D18BF40F0010040F2FF7273
:10504000B2EB515F08BF40F00200012808BF052005
:10505000704700002DE9F74F144694B00021C4E9D1
:1050600002111599079121F00045C9498D4206DCCE
:105070001599C4E9000117B00020BDE8F08FC549BB
:10508000DFF814A3A9423CDD0799C44E0029C44FA0
:10509000C44A1599534619DD01F0CEFB554506D09B
:1050A000C14AC24B01F0C8FBC4E900010AE04FF05D
:1050B000D352BE4B01F0C0FB32463B4601F0BCFB75
:1050C000C4E9000117B00120BDE8F08F00F07CFFBB
:1050D000554506D0B44AB54B00F076FFC4E900014F
:1050E0000AE04FF0D352B14B00F06EFF32463B4620
:1050F00000F06AFFC4E9000117B04FF0FF30BDE8CF
:10510000F08FAB49A942159978DB21F00041834625
:105110008846A84AA84B01F0B9F90022A74B00F035
:1051200053FF01F059F9099001F085F906460F4641
:105130009C4A534601F0AAF943465A4601F0A4FAA4
:1051400080468A46984A994B3046394601F09EF986
:105150002A0D01250B924246534601F095FA032D84
:10516000C4E9000139D00B98C1F30A51401A05EB8C
:1051700045111139814230DA9148C346784400EB39
:105180000510CDF80CA00C90D0E90023304639462C
:1051900001F07CF902460B460491069058460399AB
:1051A00001F04AFB80468A4602460B465846039960
:1051B00001F042FB049B069A01F03EFB83460C98EB
:1051C00003913946D0E90223304601F05FF95A468F
:1051D000039B01F031FB6D1CBDE707980028A2BFBF
:1051E000099817B0BDE8F08F616881F000416160F7
:1051F000099817B04042BDE8F08FFFE78446159844
:10520000C1F31301C0F30A50A0F2F5304FEA601861
:1052100000F01F06C6F120001390002006900790B2
:1052200041F4801E05206D4676B1664A08EB000108
:105230007A4452F8213002EB8101B3404A68139955
:1052400022FA01F1194305E05F4908EB00027944B5
:1052500051F82210A1FB0E27A1FB0C131A449A420D
:1052600034BF0123002303EB070A05EB8003D3E9D6
:1052700001B70F448F4234BF0121002193448B4476
:1052800011B1934502D903E0934501D2012100E019
:105290000021C3E901B7514445F82010011EA0F1D7
:1052A0000100C1DC0298059F00F10050800F1290B0
:1052B0000298DDE90356800001F0BDF883462846D8
:1052C0000D9101F0CFF86FF01D0201F060FFCDE904
:1052D0000E01304601F0C6F86FF03D0201F057FFB5
:1052E00080468A46384601F0BDF86FF05D0201F055
:1052F0004EFF074642465346119100F065FEDDE938
:105300000E2300F061FE5A460D9B00F05DFE002565
:105310000E465A4628460D9B01F08EFADDE90E2313
:1053200001F08AFA4246534601F086FA3A46119B4A
:1053300001F0AAF9DFF898A0244A534601F0A6F834
:1053400007468846234A244B3146284601F09EF8FA
:105350003A46434600F038FE074688464FF0A842DA
:1053600053463146284601F091F83A46434600F04C
:105370002BFE159A12F0004F04D0129A81F00041D2
:1053800052421292C4E90001129817B0BDE8F08FA2
:10539000FB21E93F7CD90240FB21F93F7370032ECA
:1053A0008A19A33B000040543163621A61B4D03DB6
:1053B000FB21394183C8C96D305FE43F0000E03F05
:1053C000082200008421000066210000182D4454AA
:1053D000FB21F93D3326A611460B113C2DE9FF4D6B
:1053E00021F0004807460C46B8F1795F08DA00F072
:1053F000F3FF002801BF0020324904B0BDE8F08D62
:105400003A4623461046194601F040F80546024642
:105410002D480E460B460621784400F05DF82A46DA
:10542000334601F033F8DDE9022382468B463846E5
:10543000214601F02BF804460F4652465B462846AB
:10544000314601F023F822463B4601F0F5F90746C4
:105450008A464FF0FF322846314601F098FE1B4A3B
:1054600090450ADA3A46534601F0E6F904B00022C4
:10547000BDE8F04D134B01F007B9154A4245A8BFEE
:10548000A8F500154FF00004B8BF124D22462B4678
:1054900001F0D2F90646884622462B4600200949EB
:1054A00001F0CAF904460D463A4653463046414695
:1054B00001F0C2F904B022462B46BDE8F04D01F0E0
:1054C000E3B800000000F03F3C1F00003333D33F3F
:1054D0000000E93F0000D23F2DE9F0414F1E00EBF4
:1054E000C7010446D1E9000115461E4637F0060201
:1054F0000DD02A46334600F0C9FF7F1E04EBC703D8
:10550000D3E9002300F060FD37F00602F1D1022F4D
:1055100025D0042F13D0062F18BFBDE8F0812A46EE
:10552000334600F0B3FFD4E90A2300F04DFD2A46CC
:10553000334600F0ABFFD4E9082300F045FD2A46CE
:10554000334600F0A3FFD4E9062300F03DFD2A46D0
:10555000334600F09BFFD4E9042300F035FD2A46D2
:10556000334600F093FFD4E9022300F02DFD2A46D4
:10557000334600F08BFFD4E90023BDE8F04100F092
:1055800023BD00002DE9FF4D054621F0004084B009
:105590000C46B0F1795F0BDA2846FFF746FD042888
:1055A00008BF00F06FF8284608B02146BDE8F08D2E
:1055B0002A460B46104600F069FF06460F462A466B
:1055C000234600F063FF804626488A4632463B4623
:1055D00005217844FFF780FF83461098029160B35D
:1055E000214A224B4046514600F050FFCDE90001D0
:1055F0005A4640465146029B00F048FF8246884684
:10560000DDE906014FF0FF3201F0C1FD524643468D
:1056100001F012F932463B4600F038FFDDE906237F
:1056200001F00AF9DDE9002301F006F908B02A4685
:105630002346BDE8F04D01F027B80B465A463046E8
:10564000394600F023FF084A084B00F0BDFC4246F3
:10565000534600F01BFF08B02A462346BDE8F04D34
:1056600000F0B2BC7A1E0000495555555555C5BFCE
:10567000012201F08CBD002213461046114600F0B5
:1056800053BD0000024A0020110701F080BD000058
:1056900001FDFFFF30380A2801D2012070470020A9
:1056A000704700002DE9F04D0546DFF8388221F003
:1056B00000408D4F82B00C46404520DBA0EB080136
:1056C00029430BD08949884201DC10D17DB102B059
:1056D00028462146BDE8F04DFFF7CABF002CC7BFE2
:1056E000002001468248394602B0BDE8F08D012015
:1056F000FEF730FD02B0BDE8F04DFFF7BCBF7D49BD
:10570000884244DA7C498142A1BF79487B4902B092
:10571000BDE8F08D2A4623461046194600F0B6FE35
:105720008346024676480E460B4606217844FFF72C
:10573000D3FE5A46334600F0A9FE074671488A4612
:105740005A46334604217844FFF7C6FE5A4633468C
:1057500000F09CFE0022434600F036FC02460B4659
:105760003846514600F0E0FC2A46234600F08EFE03
:10577000654A664B00F088FF2A46234600F084FF06
:1057800002B05B4ABDE8F04D5C4B00F07DBF002CE1
:105790004FF000024BDA464643462846214600F0C9
:1057A00013FC4FF0FF3201F0F2FC04460246584869
:1057B0000D460B4606217844FFF78EFE22462B4607
:1057C00000F064FE804653488A4622462B46042158
:1057D0007844FFF781FE22462B4600F057FE002258
:1057E000334600F0F1FB06468B462046294600F082
:1057F0007DFB04460D4632465B464046514600F06E
:1058000093FC22462B4600F041FE3F4A3F4B01F0FD
:1058100013F822462B4600F0D7FB012201F0B7FC1B
:1058200002B03B46BDE8F04D314A00F02DBF2D4B94
:105830002846214600F028FF4FF0FF3201F0A7FC78
:1058400005460E4600F052FB00270C4680463A46BD
:105850000B4600F0B9FB82468B463A46234610467B
:10586000194600F013FE2A46334600F00DFF52465B
:105870005B4600F059FC824627488B462A46334651
:1058800006217844FFF728FE2A46334600F0FEFD45
:10589000CDE9000121482A46334604217844FFF728
:1058A0001BFE2A46334600F0F1FD00220D4B00F0AE
:1058B0008BFB02460B46DDE9000100F035FC424659
:1058C000234600F0E3FD52465B4600F07DFB3A467E
:1058D000234600F079FB02B00122BDE8F04D01F053
:1058E00056BC00000000F03FFB2109400000F07FA3
:1058F000182D44540000E03F0000603CFB21F93FBC
:10590000F01A0000061B0000075C143326A6913C29
:10591000661A00007C1A00009A190000B0190000F5
:105920002DE9F04D8D4F21F0004A86B005460C461A
:10593000BA452ADBAAEB070028430AD088488245EB
:1059400001DC1AD1CDB106B02846BDE8F04DFFF715
:105950008FBE844A844B284600F098FD07460E46C9
:10596000824A834B2846214600F090FD06B03A4615
:105970003346BDE8F04D00F027BB0120FEF7EAFBFF
:1059800006B0BDE8F04DFFF776BE7A48824542DAB0
:10599000BAF1795F0BDA2846FFF747FB042808BF06
:1059A000FFF770FE284606B02146BDE8F08D2A4676
:1059B0000B46104600F06AFD834602466E480E46CE
:1059C0000B4606217844FFF787FD5A46334600F020
:1059D0005DFD804669488A465A463346042178442C
:1059E000FFF77AFD5A46334600F050FD00223B4651
:1059F00000F0EAFA02460B464046514600F094FB9E
:105A00002A46234600F042FD06B02A462346BDE85A
:105A1000F04D00F0D9BA284624F0004100223D465E
:105A20003B4600F031FE4FF0FF3201F0B0FB06467E
:105A3000024653480F460B4606217844FFF74CFDBB
:105A400032463B4600F022FDCDE900014D4832468A
:105A50003B4604217844FFF73FFD32463B4600F0C9
:105A600015FD00222B4600F0AFFA83460291304626
:105A7000394600F03BFA804643480D46504517DC56
:105A8000DDE900015A46029B00F04EFB42462B46E0
:105A900000F0FCFC42462B4600F096FA012201F091
:105AA00076FB304A304B00F0C7FE304A304B4CE0BA
:105AB0004FF0000A52460B46404600F085FACDE909
:105AC000031052462B461046194600F0DFFC3246C2
:105AD0003B4600F0D9FDDDE9033200F025FB064628
